{
  "_format": "hh-sol-artifact-1",
  "contractName": "JRC20",
  "sourceName": "contracts/JRC20.sol",
  "abi": [
    {
      "inputs": [
        {
          "internalType": "string",
          "name": "_name",
          "type": "string"
        },
        {
          "internalType": "string",
          "name": "_symbol",
          "type": "string"
        },
        {
          "internalType": "uint8",
          "name": "_decimals",
          "type": "uint8"
        },
        {
          "internalType": "uint256",
          "name": "_initialSupply",
          "type": "uint256"
        },
        {
          "internalType": "address",
          "name": "_treasury",
          "type": "address"
        }
      ],
      "stateMutability": "nonpayable",
      "type": "constructor"
    },
    {
      "anonymous": false,
      "inputs": [
        {
          "indexed": true,
          "internalType": "address",
          "name": "owner",
          "type": "address"
        },
        {
          "indexed": true,
          "internalType": "address",
          "name": "spender",
          "type": "address"
        },
        {
          "indexed": false,
          "internalType": "uint256",
          "name": "value",
          "type": "uint256"
        }
      ],
      "name": "Approval",
      "type": "event"
    },
    {
      "anonymous": false,
      "inputs": [
        {
          "indexed": true,
          "internalType": "address",
          "name": "from",
          "type": "address"
        },
        {
          "indexed": true,
          "internalType": "address",
          "name": "to",
          "type": "address"
        },
        {
          "indexed": false,
          "internalType": "uint256",
          "name": "value",
          "type": "uint256"
        }
      ],
      "name": "Transfer",
      "type": "event"
    },
    {
      "inputs": [
        {
          "internalType": "address",
          "name": "",
          "type": "address"
        },
        {
          "internalType": "address",
          "name": "",
          "type": "address"
        }
      ],
      "name": "allowance",
      "outputs": [
        {
          "internalType": "uint256",
          "name": "",
          "type": "uint256"
        }
      ],
      "stateMutability": "view",
      "type": "function"
    },
    {
      "inputs": [
        {
          "internalType": "address",
          "name": "spender",
          "type": "address"
        },
        {
          "internalType": "uint256",
          "name": "amount",
          "type": "uint256"
        }
      ],
      "name": "approve",
      "outputs": [
        {
          "internalType": "bool",
          "name": "",
          "type": "bool"
        }
      ],
      "stateMutability": "nonpayable",
      "type": "function"
    },
    {
      "inputs": [
        {
          "internalType": "address",
          "name": "",
          "type": "address"
        }
      ],
      "name": "balanceOf",
      "outputs": [
        {
          "internalType": "uint256",
          "name": "",
          "type": "uint256"
        }
      ],
      "stateMutability": "view",
      "type": "function"
    },
    {
      "inputs": [],
      "name": "decimals",
      "outputs": [
        {
          "internalType": "uint8",
          "name": "",
          "type": "uint8"
        }
      ],
      "stateMutability": "view",
      "type": "function"
    },
    {
      "inputs": [
        {
          "internalType": "address",
          "name": "to",
          "type": "address"
        },
        {
          "internalType": "uint256",
          "name": "amount",
          "type": "uint256"
        }
      ],
      "name": "mint",
      "outputs": [],
      "stateMutability": "nonpayable",
      "type": "function"
    },
    {
      "inputs": [],
      "name": "name",
      "outputs": [
        {
          "internalType": "string",
          "name": "",
          "type": "string"
        }
      ],
      "stateMutability": "view",
      "type": "function"
    },
    {
      "inputs": [],
      "name": "symbol",
      "outputs": [
        {
          "internalType": "string",
          "name": "",
          "type": "string"
        }
      ],
      "stateMutability": "view",
      "type": "function"
    },
    {
      "inputs": [],
      "name": "totalSupply",
      "outputs": [
        {
          "internalType": "uint256",
          "name": "",
          "type": "uint256"
        }
      ],
      "stateMutability": "view",
      "type": "function"
    },
    {
      "inputs": [
        {
          "internalType": "address",
          "name": "to",
          "type": "address"
        },
        {
          "internalType": "uint256",
          "name": "amount",
          "type": "uint256"
        }
      ],
      "name": "transfer",
      "outputs": [
        {
          "internalType": "bool",
          "name": "",
          "type": "bool"
        }
      ],
      "stateMutability": "nonpayable",
      "type": "function"
    },
    {
      "inputs": [
        {
          "internalType": "address",
          "name": "from",
          "type": "address"
        },
        {
          "internalType": "address",
          "name": "to",
          "type": "address"
        },
        {
          "internalType": "uint256",
          "name": "amount",
          "type": "uint256"
        }
      ],
      "name": "transferFrom",
      "outputs": [
        {
          "internalType": "bool",
          "name": "",
          "type": "bool"
        }
      ],
      "stateMutability": "nonpayable",
      "type": "function"
    },
    {
      "inputs": [],
      "name": "treasury",
      "outputs": [
        {
          "internalType": "address",
          "name": "",
          "type": "address"
        }
      ],
      "stateMutability": "view",
      "type": "function"
    }
  ],
  "bytecode": "0x60806040523480156200001157600080fd5b5060405162000b9438038062000b948339810160408190526200003491620001e5565b600062000042868262000324565b50600162000051858262000324565b506002805460ff191660ff8516179055600480546001600160a01b0319166001600160a01b03831617905562000088818362000093565b505050505062000418565b8060036000828254620000a79190620003f0565b90915550506001600160a01b03821660009081526005602052604081208054839290620000d6908490620003f0565b90915550506040518181526001600160a01b038316906000907fddf252ad1be2c89b69c2b068fc378daa952ba7f163c4a11628f55a4df523b3ef9060200160405180910390a35050565b634e487b7160e01b600052604160045260246000fd5b600082601f8301126200014857600080fd5b81516001600160401b038082111562000165576200016562000120565b604051601f8301601f19908116603f0116810190828211818310171562000190576200019062000120565b81604052838152602092508683858801011115620001ad57600080fd5b600091505b83821015620001d15785820183015181830184015290820190620001b2565b600093810190920192909252949350505050565b600080600080600060a08688031215620001fe57600080fd5b85516001600160401b03808211156200021657600080fd5b6200022489838a0162000136565b965060208801519150808211156200023b57600080fd5b506200024a8882890162000136565b945050604086015160ff811681146200026257600080fd5b6060870151608088015191945092506001600160a01b03811681146200028757600080fd5b809150509295509295909350565b600181811c90821680620002aa57607f821691505b602082108103620002cb57634e487b7160e01b600052602260045260246000fd5b50919050565b601f8211156200031f57600081815260208120601f850160051c81016020861015620002fa5750805b601f850160051c820191505b818110156200031b5782815560010162000306565b5050505b505050565b81516001600160401b0381111562000340576200034062000120565b620003588162000351845462000295565b84620002d1565b602080601f831160018114620003905760008415620003775750858301515b600019600386901b1c1916600185901b1785556200031b565b600085815260208120601f198616915b82811015620003c157888601518255948401946001909101908401620003a0565b5085821015620003e05787850151600019600388901b60f8161c191681555b5050505050600190811b01905550565b808201808211156200041257634e487b7160e01b600052601160045260246000fd5b92915050565b61076c80620004286000396000f3fe608060405234801561001057600080fd5b50600436106100a95760003560e01c806340c10f191161007157806340c10f191461013857806361d027b31461014d57806370a082311461017857806395d89b4114610198578063a9059cbb146101a0578063dd62ed3e146101b357600080fd5b806306fdde03146100ae578063095ea7b3146100cc57806318160ddd146100ef57806323b872dd14610106578063313ce56714610119575b600080fd5b6100b66101de565b6040516100c3919061059b565b60405180910390f35b6100df6100da366004610605565b61026c565b60405190151581526020016100c3565b6100f860035481565b6040519081526020016100c3565b6100df61011436600461062f565b6102d9565b6002546101269060ff1681565b60405160ff90911681526020016100c3565b61014b610146366004610605565b61038b565b005b600454610160906001600160a01b031681565b6040516001600160a01b0390911681526020016100c3565b6100f861018636600461066b565b60056020526000908152604090205481565b6100b66103e2565b6100df6101ae366004610605565b6103ef565b6100f86101c136600461068d565b600660209081526000928352604080842090915290825290205481565b600080546101eb906106c0565b80601f0160208091040260200160405190810160405280929190818152602001828054610217906106c0565b80156102645780601f1061023957610100808354040283529160200191610264565b820191906000526020600020905b81548152906001019060200180831161024757829003601f168201915b505050505081565b3360008181526006602090815260408083206001600160a01b038716808552925280832085905551919290917f8c5be1e5ebec7d5bd14f71427d1e84f3dd0314c0f7b2291e5b200ac8c7c3b925906102c79086815260200190565b60405180910390a35060015b92915050565b6001600160a01b0383166000908152600660209081526040808320338452909152812054828110156103475760405162461bcd60e51b8152602060048201526012602482015271105b1b1bddd85b98d948195e18d95959195960721b60448201526064015b60405180910390fd5b6103518382610710565b6001600160a01b0386166000908152600660209081526040808320338452909152902055610380858585610405565b506001949350505050565b6004546001600160a01b031633146103d45760405162461bcd60e51b815260206004820152600c60248201526b4e6f7420747265617375727960a01b604482015260640161033e565b6103de8282610512565b5050565b600180546101eb906106c0565b60006103fc338484610405565b50600192915050565b6001600160a01b0383166000908152600560205260409020548111156104645760405162461bcd60e51b8152602060048201526014602482015273496e73756666696369656e742062616c616e636560601b604482015260640161033e565b6001600160a01b0383166000908152600560205260408120805483929061048c908490610710565b90915550506001600160a01b038216600090815260056020526040812080548392906104b9908490610723565b92505081905550816001600160a01b0316836001600160a01b03167fddf252ad1be2c89b69c2b068fc378daa952ba7f163c4a11628f55a4df523b3ef8360405161050591815260200190565b60405180910390a3505050565b80600360008282546105249190610723565b90915550506001600160a01b03821660009081526005602052604081208054839290610551908490610723565b90915550506040518181526001600160a01b038316906000907fddf252ad1be2c89b69c2b068fc378daa952ba7f163c4a11628f55a4df523b3ef9060200160405180910390a35050565b600060208083528351808285015260005b818110156105c8578581018301518582016040015282016105ac565b506000604082860101526040601f19601f8301168501019250505092915050565b80356001600160a01b038116811461060057600080fd5b919050565b6000806040838503121561061857600080fd5b610621836105e9565b946020939093013593505050565b60008060006060848603121561064457600080fd5b61064d846105e9565b925061065b602085016105e9565b9150604084013590509250925092565b60006020828403121561067d57600080fd5b610686826105e9565b9392505050565b600080604083850312156106a057600080fd5b6106a9836105e9565b91506106b7602084016105e9565b90509250929050565b600181811c908216806106d457607f821691505b6020821081036106f457634e487b7160e01b600052602260045260246000fd5b50919050565b634e487b7160e01b600052601160045260246000fd5b818103818111156102d3576102d36106fa565b808201808211156102d3576102d36106fa56fea2646970667358221220c11814a8ec77e33557941aef22cdf5f082e85d5b5807a4a860029dbae026752f64736f6c63430008140033",
  "linkReferences": {},
  "deployedLinkReferences": {}
}